{
  "_format": "hh-sol-artifact-1",
  "contractName": "MintableERC721",
  "sourceName": "contracts/MintableERC721.sol",
  "abi": [
    {
      "inputs": [
        {
          "internalType": "string",
          "name": "name",
          "type": "string"
        },
        {
          "internalType": "string",
          "name": "symbol",
          "type": "string"
        }
      ],
      "stateMutability": "nonpayable",
      "type": "constructor"
    },
    {
      "anonymous": false,
      "inputs": [
        {
          "indexed": true,
          "internalType": "address",
          "name": "owner",
          "type": "address"
        },
        {
          "indexed": true,
          "internalType": "address",
          "name": "approved",
          "type": "address"
        },
        {
          "indexed": true,
          "internalType": "uint256",
          "name": "tokenId",
          "type": "uint256"
        }
      ],
      "name": "Approval",
      "type": "event"
    },
    {
      "anonymous": false,
      "inputs": [
        {
          "indexed": true,
          "internalType": "address",
          "name": "owner",
          "type": "address"
        },
        {
          "indexed": true,
          "internalType": "address",
          "name": "operator",
          "type": "address"
        },
        {
          "indexed": false,
          "internalType": "bool",
          "name": "approved",
          "type": "bool"
        }
      ],
      "name": "ApprovalForAll",
      "type": "event"
    },
    {
      "anonymous": false,
      "inputs": [
        {
          "indexed": true,
          "internalType": "address",
          "name": "from",
          "type": "address"
        },
        {
          "indexed": true,
          "internalType": "address",
          "name": "to",
          "type": "address"
        },
        {
          "indexed": true,
          "internalType": "uint256",
          "name": "tokenId",
          "type": "uint256"
        }
      ],
      "name": "Transfer",
      "type": "event"
    },
    {
      "inputs": [
        {
          "internalType": "address",
          "name": "to",
          "type": "address"
        },
        {
          "internalType": "uint256",
          "name": "tokenId",
          "type": "uint256"
        }
      ],
      "name": "approve",
      "outputs": [],
      "stateMutability": "nonpayable",
      "type": "function"
    },
    {
      "inputs": [
        {
          "internalType": "address",
          "name": "owner",
          "type": "address"
        }
      ],
      "name": "balanceOf",
      "outputs": [
        {
          "internalType": "uint256",
          "name": "",
          "type": "uint256"
        }
      ],
      "stateMutability": "view",
      "type": "function"
    },
    {
      "inputs": [
        {
          "internalType": "uint256",
          "name": "tokenId",
          "type": "uint256"
        }
      ],
      "name": "burn",
      "outputs": [],
      "stateMutability": "nonpayable",
      "type": "function"
    },
    {
      "inputs": [
        {
          "internalType": "uint256",
          "name": "tokenId",
          "type": "uint256"
        }
      ],
      "name": "getApproved",
      "outputs": [
        {
          "internalType": "address",
          "name": "",
          "type": "address"
        }
      ],
      "stateMutability": "view",
      "type": "function"
    },
    {
      "inputs": [
        {
          "internalType": "address",
          "name": "owner",
          "type": "address"
        },
        {
          "internalType": "address",
          "name": "operator",
          "type": "address"
        }
      ],
      "name": "isApprovedForAll",
      "outputs": [
        {
          "internalType": "bool",
          "name": "",
          "type": "bool"
        }
      ],
      "stateMutability": "view",
      "type": "function"
    },
    {
      "inputs": [],
      "name": "name",
      "outputs": [
        {
          "internalType": "string",
          "name": "",
          "type": "string"
        }
      ],
      "stateMutability": "view",
      "type": "function"
    },
    {
      "inputs": [
        {
          "internalType": "uint256",
          "name": "tokenId",
          "type": "uint256"
        }
      ],
      "name": "ownerOf",
      "outputs": [
        {
          "internalType": "address",
          "name": "",
          "type": "address"
        }
      ],
      "stateMutability": "view",
      "type": "function"
    },
    {
      "inputs": [
        {
          "internalType": "address",
          "name": "to",
          "type": "address"
        },
        {
          "internalType": "string",
          "name": "uri",
          "type": "string"
        }
      ],
      "name": "safeMint",
      "outputs": [],
      "stateMutability": "nonpayable",
      "type": "function"
    },
    {
      "inputs": [
        {
          "internalType": "address",
          "name": "from",
          "type": "address"
        },
        {
          "internalType": "address",
          "name": "to",
          "type": "address"
        },
        {
          "internalType": "uint256",
          "name": "tokenId",
          "type": "uint256"
        }
      ],
      "name": "safeTransferFrom",
      "outputs": [],
      "stateMutability": "nonpayable",
      "type": "function"
    },
    {
      "inputs": [
        {
          "internalType": "address",
          "name": "from",
          "type": "address"
        },
        {
          "internalType": "address",
          "name": "to",
          "type": "address"
        },
        {
          "internalType": "uint256",
          "name": "tokenId",
          "type": "uint256"
        },
        {
          "internalType": "bytes",
          "name": "_data",
          "type": "bytes"
        }
      ],
      "name": "safeTransferFrom",
      "outputs": [],
      "stateMutability": "nonpayable",
      "type": "function"
    },
    {
      "inputs": [
        {
          "internalType": "address",
          "name": "operator",
          "type": "address"
        },
        {
          "internalType": "bool",
          "name": "approved",
          "type": "bool"
        }
      ],
      "name": "setApprovalForAll",
      "outputs": [],
      "stateMutability": "nonpayable",
      "type": "function"
    },
    {
      "inputs": [
        {
          "internalType": "bytes4",
          "name": "interfaceId",
          "type": "bytes4"
        }
      ],
      "name": "supportsInterface",
      "outputs": [
        {
          "internalType": "bool",
          "name": "",
          "type": "bool"
        }
      ],
      "stateMutability": "view",
      "type": "function"
    },
    {
      "inputs": [],
      "name": "symbol",
      "outputs": [
        {
          "internalType": "string",
          "name": "",
          "type": "string"
        }
      ],
      "stateMutability": "view",
      "type": "function"
    },
    {
      "inputs": [
        {
          "internalType": "uint256",
          "name": "tokenId",
          "type": "uint256"
        }
      ],
      "name": "tokenURI",
      "outputs": [
        {
          "internalType": "string",
          "name": "",
          "type": "string"
        }
      ],
      "stateMutability": "view",
      "type": "function"
    },
    {
      "inputs": [
        {
          "internalType": "address",
          "name": "from",
          "type": "address"
        },
        {
          "internalType": "address",
          "name": "to",
          "type": "address"
        },
        {
          "internalType": "uint256",
          "name": "tokenId",
          "type": "uint256"
        }
      ],
      "name": "transferFrom",
      "outputs": [],
      "stateMutability": "nonpayable",
      "type": "function"
    }
  ],
  "bytecode": "0x60806040523480156200001157600080fd5b506040516200326538038062003265833981810160405281019062000037919062000197565b818181600090805190602001906200005192919062000075565b5080600190805190602001906200006a92919062000075565b50505050506200037a565b82805462000083906200029f565b90600052602060002090601f016020900481019282620000a75760008555620000f3565b82601f10620000c257805160ff1916838001178555620000f3565b82800160010185558215620000f3579182015b82811115620000f2578251825591602001919060010190620000d5565b5b50905062000102919062000106565b5090565b5b808211156200012157600081600090555060010162000107565b5090565b60006200013c620001368462000233565b6200020a565b9050828152602081018484840111156200015557600080fd5b6200016284828562000269565b509392505050565b600082601f8301126200017c57600080fd5b81516200018e84826020860162000125565b91505092915050565b60008060408385031215620001ab57600080fd5b600083015167ffffffffffffffff811115620001c657600080fd5b620001d4858286016200016a565b925050602083015167ffffffffffffffff811115620001f257600080fd5b62000200858286016200016a565b9150509250929050565b60006200021662000229565b9050620002248282620002d5565b919050565b6000604051905090565b600067ffffffffffffffff8211156200025157620002506200033a565b5b6200025c8262000369565b9050602081019050919050565b60005b83811015620002895780820151818401526020810190506200026c565b8381111562000299576000848401525b50505050565b60006002820490506001821680620002b857607f821691505b60208210811415620002cf57620002ce6200030b565b5b50919050565b620002e08262000369565b810181811067ffffffffffffffff821117156200030257620003016200033a565b5b80604052505050565b7f4e487b7100000000000000000000000000000000000000000000000000000000600052602260045260246000fd5b7f4e487b7100000000000000000000000000000000000000000000000000000000600052604160045260246000fd5b6000601f19601f8301169050919050565b612edb806200038a6000396000f3fe608060405234801561001057600080fd5b50600436106100f55760003560e01c80636352211e11610097578063b88d4fde11610066578063b88d4fde14610282578063c87b56dd1461029e578063d204c45e146102ce578063e985e9c5146102ea576100f5565b80636352211e146101e857806370a082311461021857806395d89b4114610248578063a22cb46514610266576100f5565b8063095ea7b3116100d3578063095ea7b31461017857806323b872dd1461019457806342842e0e146101b057806342966c68146101cc576100f5565b806301ffc9a7146100fa57806306fdde031461012a578063081812fc14610148575b600080fd5b610114600480360381019061010f9190611ef6565b61031a565b604051610121919061231f565b60405180910390f35b6101326103fc565b60405161013f919061233a565b60405180910390f35b610162600480360381019061015d9190611f48565b61048e565b60405161016f91906122b8565b60405180910390f35b610192600480360381019061018d9190611eba565b610513565b005b6101ae60048036038101906101a99190611d60565b61062b565b005b6101ca60048036038101906101c59190611d60565b61068b565b005b6101e660048036038101906101e19190611f48565b6106ab565b005b61020260048036038101906101fd9190611f48565b610707565b60405161020f91906122b8565b60405180910390f35b610232600480360381019061022d9190611cfb565b6107b9565b60405161023f919061257c565b60405180910390f35b610250610871565b60405161025d919061233a565b60405180910390f35b610280600480360381019061027b9190611e2a565b610903565b005b61029c60048036038101906102979190611daf565b610919565b005b6102b860048036038101906102b39190611f48565b61097b565b6040516102c5919061233a565b60405180910390f35b6102e860048036038101906102e39190611e66565b61098d565b005b61030460048036038101906102ff9190611d24565b6109be565b604051610311919061231f565b60405180910390f35b60007f80ac58cd000000000000000000000000000000000000000000000000000000007bffffffffffffffffffffffffffffffffffffffffffffffffffffffff1916827bffffffffffffffffffffffffffffffffffffffffffffffffffffffff191614806103e557507f5b5e139f000000000000000000000000000000000000000000000000000000007bffffffffffffffffffffffffffffffffffffffffffffffffffffffff1916827bffffffffffffffffffffffffffffffffffffffffffffffffffffffff1916145b806103f557506103f482610a52565b5b9050919050565b60606000805461040b906127d2565b80601f0160208091040260200160405190810160405280929190818152602001828054610437906127d2565b80156104845780601f1061045957610100808354040283529160200191610484565b820191906000526020600020905b81548152906001019060200180831161046757829003601f168201915b5050505050905090565b600061049982610abc565b6104d8576040517f08c379a00000000000000000000000000000000000000000000000000000000081526004016104cf906124dc565b60405180910390fd5b6004600083815260200190815260200160002060009054906101000a900473ffffffffffffffffffffffffffffffffffffffff169050919050565b600061051e82610707565b90508073ffffffffffffffffffffffffffffffffffffffff168373ffffffffffffffffffffffffffffffffffffffff16141561058f576040517f08c379a00000000000000000000000000000000000000000000000000000000081526004016105869061251c565b60405180910390fd5b8073ffffffffffffffffffffffffffffffffffffffff166105ae610b28565b73ffffffffffffffffffffffffffffffffffffffff1614806105dd57506105dc816105d7610b28565b6109be565b5b61061c576040517f08c379a00000000000000000000000000000000000000000000000000000000081526004016106139061241c565b60405180910390fd5b6106268383610b30565b505050565b61063c610636610b28565b82610be9565b61067b576040517f08c379a00000000000000000000000000000000000000000000000000000000081526004016106729061253c565b60405180910390fd5b610686838383610cc7565b505050565b6106a683838360405180602001604052806000815250610919565b505050565b6106bc6106b6610b28565b82610be9565b6106fb576040517f08c379a00000000000000000000000000000000000000000000000000000000081526004016106f29061255c565b60405180910390fd5b61070481610f2e565b50565b6000806002600084815260200190815260200160002060009054906101000a900473ffffffffffffffffffffffffffffffffffffffff169050600073ffffffffffffffffffffffffffffffffffffffff168173ffffffffffffffffffffffffffffffffffffffff1614156107b0576040517f08c379a00000000000000000000000000000000000000000000000000000000081526004016107a79061245c565b60405180910390fd5b80915050919050565b60008073ffffffffffffffffffffffffffffffffffffffff168273ffffffffffffffffffffffffffffffffffffffff16141561082a576040517f08c379a00000000000000000000000000000000000000000000000000000000081526004016108219061243c565b60405180910390fd5b600360008373ffffffffffffffffffffffffffffffffffffffff1673ffffffffffffffffffffffffffffffffffffffff168152602001908152602001600020549050919050565b606060018054610880906127d2565b80601f01602080910402602001604051908101604052809291908181526020018280546108ac906127d2565b80156108f95780601f106108ce576101008083540402835291602001916108f9565b820191906000526020600020905b8154815290600101906020018083116108dc57829003601f168201915b5050505050905090565b61091561090e610b28565b8383610f3a565b5050565b61092a610924610b28565b83610be9565b610969576040517f08c379a00000000000000000000000000000000000000000000000000000000081526004016109609061253c565b60405180910390fd5b610975848484846110a7565b50505050565b606061098682611103565b9050919050565b60006109996007611255565b90506109a56007611263565b6109af8382611279565b6109b98183611297565b505050565b6000600560008473ffffffffffffffffffffffffffffffffffffffff1673ffffffffffffffffffffffffffffffffffffffff16815260200190815260200160002060008373ffffffffffffffffffffffffffffffffffffffff1673ffffffffffffffffffffffffffffffffffffffff16815260200190815260200160002060009054906101000a900460ff16905092915050565b60007f01ffc9a7000000000000000000000000000000000000000000000000000000007bffffffffffffffffffffffffffffffffffffffffffffffffffffffff1916827bffffffffffffffffffffffffffffffffffffffffffffffffffffffff1916149050919050565b60008073ffffffffffffffffffffffffffffffffffffffff166002600084815260200190815260200160002060009054906101000a900473ffffffffffffffffffffffffffffffffffffffff1673ffffffffffffffffffffffffffffffffffffffff1614159050919050565b600033905090565b816004600083815260200190815260200160002060006101000a81548173ffffffffffffffffffffffffffffffffffffffff021916908373ffffffffffffffffffffffffffffffffffffffff160217905550808273ffffffffffffffffffffffffffffffffffffffff16610ba383610707565b73ffffffffffffffffffffffffffffffffffffffff167f8c5be1e5ebec7d5bd14f71427d1e84f3dd0314c0f7b2291e5b200ac8c7c3b92560405160405180910390a45050565b6000610bf482610abc565b610c33576040517f08c379a0000000000000000000000000000000000000000000000000000000008152600401610c2a906123fc565b60405180910390fd5b6000610c3e83610707565b90508073ffffffffffffffffffffffffffffffffffffffff168473ffffffffffffffffffffffffffffffffffffffff161480610cad57508373ffffffffffffffffffffffffffffffffffffffff16610c958461048e565b73ffffffffffffffffffffffffffffffffffffffff16145b80610cbe5750610cbd81856109be565b5b91505092915050565b8273ffffffffffffffffffffffffffffffffffffffff16610ce782610707565b73ffffffffffffffffffffffffffffffffffffffff1614610d3d576040517f08c379a0000000000000000000000000000000000000000000000000000000008152600401610d349061237c565b60405180910390fd5b600073ffffffffffffffffffffffffffffffffffffffff168273ffffffffffffffffffffffffffffffffffffffff161415610dad576040517f08c379a0000000000000000000000000000000000000000000000000000000008152600401610da4906123bc565b60405180910390fd5b610db883838361130b565b610dc3600082610b30565b6001600360008573ffffffffffffffffffffffffffffffffffffffff1673ffffffffffffffffffffffffffffffffffffffff1681526020019081526020016000206000828254610e1391906126e8565b925050819055506001600360008473ffffffffffffffffffffffffffffffffffffffff1673ffffffffffffffffffffffffffffffffffffffff1681526020019081526020016000206000828254610e6a9190612661565b92505081905550816002600083815260200190815260200160002060006101000a81548173ffffffffffffffffffffffffffffffffffffffff021916908373ffffffffffffffffffffffffffffffffffffffff160217905550808273ffffffffffffffffffffffffffffffffffffffff168473ffffffffffffffffffffffffffffffffffffffff167fddf252ad1be2c89b69c2b068fc378daa952ba7f163c4a11628f55a4df523b3ef60405160405180910390a4610f29838383611310565b505050565b610f3781611315565b50565b8173ffffffffffffffffffffffffffffffffffffffff168373ffffffffffffffffffffffffffffffffffffffff161415610fa9576040517f08c379a0000000000000000000000000000000000000000000000000000000008152600401610fa0906123dc565b60405180910390fd5b80600560008573ffffffffffffffffffffffffffffffffffffffff1673ffffffffffffffffffffffffffffffffffffffff16815260200190815260200160002060008473ffffffffffffffffffffffffffffffffffffffff1673ffffffffffffffffffffffffffffffffffffffff16815260200190815260200160002060006101000a81548160ff0219169083151502179055508173ffffffffffffffffffffffffffffffffffffffff168373ffffffffffffffffffffffffffffffffffffffff167f17307eab39ab6107e8899845ad3d59bd9653f200f220920489ca2b5937696c318360405161109a919061231f565b60405180910390a3505050565b6110b2848484610cc7565b6110be84848484611368565b6110fd576040517f08c379a00000000000000000000000000000000000000000000000000000000081526004016110f49061235c565b60405180910390fd5b50505050565b606061110e82610abc565b61114d576040517f08c379a0000000000000000000000000000000000000000000000000000000008152600401611144906124bc565b60405180910390fd5b600060066000848152602001908152602001600020805461116d906127d2565b80601f0160208091040260200160405190810160405280929190818152602001828054611199906127d2565b80156111e65780601f106111bb576101008083540402835291602001916111e6565b820191906000526020600020905b8154815290600101906020018083116111c957829003601f168201915b5050505050905060006111f76114ff565b905060008151141561120d578192505050611250565b60008251111561124257808260405160200161122a929190612294565b60405160208183030381529060405292505050611250565b61124b84611516565b925050505b919050565b600081600001549050919050565b6001816000016000828254019250508190555050565b6112938282604051806020016040528060008152506115bd565b5050565b6112a082610abc565b6112df576040517f08c379a00000000000000000000000000000000000000000000000000000000081526004016112d69061247c565b60405180910390fd5b80600660008481526020019081526020016000209080519060200190611306929190611adf565b505050565b505050565b505050565b61131e81611618565b600060066000838152602001908152602001600020805461133e906127d2565b905014611365576006600082815260200190815260200160002060006113649190611b65565b5b50565b60006113898473ffffffffffffffffffffffffffffffffffffffff16611735565b156114f2578373ffffffffffffffffffffffffffffffffffffffff1663150b7a026113b2610b28565b8786866040518563ffffffff1660e01b81526004016113d494939291906122d3565b602060405180830381600087803b1580156113ee57600080fd5b505af192505050801561141f57506040513d601f19601f8201168201806040525081019061141c9190611f1f565b60015b6114a2573d806000811461144f576040519150601f19603f3d011682016040523d82523d6000602084013e611454565b606091505b5060008151141561149a576040517f08c379a00000000000000000000000000000000000000000000000000000000081526004016114919061235c565b60405180910390fd5b805181602001fd5b63150b7a0260e01b7bffffffffffffffffffffffffffffffffffffffffffffffffffffffff1916817bffffffffffffffffffffffffffffffffffffffffffffffffffffffff1916149150506114f7565b600190505b949350505050565b606060405180602001604052806000815250905090565b606061152182610abc565b611560576040517f08c379a0000000000000000000000000000000000000000000000000000000008152600401611557906124fc565b60405180910390fd5b600061156a6114ff565b9050600081511161158a57604051806020016040528060008152506115b5565b8061159484611758565b6040516020016115a5929190612294565b6040516020818303038152906040525b915050919050565b6115c78383611905565b6115d46000848484611368565b611613576040517f08c379a000000000000000000000000000000000000000000000000000000000815260040161160a9061235c565b60405180910390fd5b505050565b600061162382610707565b90506116318160008461130b565b61163c600083610b30565b6001600360008373ffffffffffffffffffffffffffffffffffffffff1673ffffffffffffffffffffffffffffffffffffffff168152602001908152602001600020600082825461168c91906126e8565b925050819055506002600083815260200190815260200160002060006101000a81549073ffffffffffffffffffffffffffffffffffffffff021916905581600073ffffffffffffffffffffffffffffffffffffffff168273ffffffffffffffffffffffffffffffffffffffff167fddf252ad1be2c89b69c2b068fc378daa952ba7f163c4a11628f55a4df523b3ef60405160405180910390a461173181600084611310565b5050565b6000808273ffffffffffffffffffffffffffffffffffffffff163b119050919050565b606060008214156117a0576040518060400160405280600181526020017f30000000000000000000000000000000000000000000000000000000000000008152509050611900565b600082905060005b600082146117d25780806117bb90612835565b915050600a826117cb91906126b7565b91506117a8565b60008167ffffffffffffffff811115611814577f4e487b7100000000000000000000000000000000000000000000000000000000600052604160045260246000fd5b6040519080825280601f01601f1916602001820160405280156118465781602001600182028036833780820191505090505b5090505b600085146118f95760018261185f91906126e8565b9150600a8561186e919061287e565b603061187a9190612661565b60f81b8183815181106118b6577f4e487b7100000000000000000000000000000000000000000000000000000000600052603260045260246000fd5b60200101907effffffffffffffffffffffffffffffffffffffffffffffffffffffffffffff1916908160001a905350600a856118f291906126b7565b945061184a565b8093505050505b919050565b600073ffffffffffffffffffffffffffffffffffffffff168273ffffffffffffffffffffffffffffffffffffffff161415611975576040517f08c379a000000000000000000000000000000000000000000000000000000000815260040161196c9061249c565b60405180910390fd5b61197e81610abc565b156119be576040517f08c379a00000000000000000000000000000000000000000000000000000000081526004016119b59061239c565b60405180910390fd5b6119ca6000838361130b565b6001600360008473ffffffffffffffffffffffffffffffffffffffff1673ffffffffffffffffffffffffffffffffffffffff1681526020019081526020016000206000828254611a1a9190612661565b92505081905550816002600083815260200190815260200160002060006101000a81548173ffffffffffffffffffffffffffffffffffffffff021916908373ffffffffffffffffffffffffffffffffffffffff160217905550808273ffffffffffffffffffffffffffffffffffffffff16600073ffffffffffffffffffffffffffffffffffffffff167fddf252ad1be2c89b69c2b068fc378daa952ba7f163c4a11628f55a4df523b3ef60405160405180910390a4611adb60008383611310565b5050565b828054611aeb906127d2565b90600052602060002090601f016020900481019282611b0d5760008555611b54565b82601f10611b2657805160ff1916838001178555611b54565b82800160010185558215611b54579182015b82811115611b53578251825591602001919060010190611b38565b5b509050611b619190611ba5565b5090565b508054611b71906127d2565b6000825580601f10611b835750611ba2565b601f016020900490600052602060002090810190611ba19190611ba5565b5b50565b5b80821115611bbe576000816000905550600101611ba6565b5090565b6000611bd5611bd0846125bc565b612597565b905082815260208101848484011115611bed57600080fd5b611bf8848285612790565b509392505050565b6000611c13611c0e846125ed565b612597565b905082815260208101848484011115611c2b57600080fd5b611c36848285612790565b509392505050565b600081359050611c4d81612e49565b92915050565b600081359050611c6281612e60565b92915050565b600081359050611c7781612e77565b92915050565b600081519050611c8c81612e77565b92915050565b600082601f830112611ca357600080fd5b8135611cb3848260208601611bc2565b91505092915050565b600082601f830112611ccd57600080fd5b8135611cdd848260208601611c00565b91505092915050565b600081359050611cf581612e8e565b92915050565b600060208284031215611d0d57600080fd5b6000611d1b84828501611c3e565b91505092915050565b60008060408385031215611d3757600080fd5b6000611d4585828601611c3e565b9250506020611d5685828601611c3e565b9150509250929050565b600080600060608486031215611d7557600080fd5b6000611d8386828701611c3e565b9350506020611d9486828701611c3e565b9250506040611da586828701611ce6565b9150509250925092565b60008060008060808587031215611dc557600080fd5b6000611dd387828801611c3e565b9450506020611de487828801611c3e565b9350506040611df587828801611ce6565b925050606085013567ffffffffffffffff811115611e1257600080fd5b611e1e87828801611c92565b91505092959194509250565b60008060408385031215611e3d57600080fd5b6000611e4b85828601611c3e565b9250506020611e5c85828601611c53565b9150509250929050565b60008060408385031215611e7957600080fd5b6000611e8785828601611c3e565b925050602083013567ffffffffffffffff811115611ea457600080fd5b611eb085828601611cbc565b9150509250929050565b60008060408385031215611ecd57600080fd5b6000611edb85828601611c3e565b9250506020611eec85828601611ce6565b9150509250929050565b600060208284031215611f0857600080fd5b6000611f1684828501611c68565b91505092915050565b600060208284031215611f3157600080fd5b6000611f3f84828501611c7d565b91505092915050565b600060208284031215611f5a57600080fd5b6000611f6884828501611ce6565b91505092915050565b611f7a8161271c565b82525050565b611f898161272e565b82525050565b6000611f9a8261261e565b611fa48185612634565b9350611fb481856020860161279f565b611fbd8161296b565b840191505092915050565b6000611fd382612629565b611fdd8185612645565b9350611fed81856020860161279f565b611ff68161296b565b840191505092915050565b600061200c82612629565b6120168185612656565b935061202681856020860161279f565b80840191505092915050565b600061203f603283612645565b915061204a8261297c565b604082019050919050565b6000612062602583612645565b915061206d826129cb565b604082019050919050565b6000612085601c83612645565b915061209082612a1a565b602082019050919050565b60006120a8602483612645565b91506120b382612a43565b604082019050919050565b60006120cb601983612645565b91506120d682612a92565b602082019050919050565b60006120ee602c83612645565b91506120f982612abb565b604082019050919050565b6000612111603883612645565b915061211c82612b0a565b604082019050919050565b6000612134602a83612645565b915061213f82612b59565b604082019050919050565b6000612157602983612645565b915061216282612ba8565b604082019050919050565b600061217a602e83612645565b915061218582612bf7565b604082019050919050565b600061219d602083612645565b91506121a882612c46565b602082019050919050565b60006121c0603183612645565b91506121cb82612c6f565b604082019050919050565b60006121e3602c83612645565b91506121ee82612cbe565b604082019050919050565b6000612206602f83612645565b915061221182612d0d565b604082019050919050565b6000612229602183612645565b915061223482612d5c565b604082019050919050565b600061224c603183612645565b915061225782612dab565b604082019050919050565b600061226f603083612645565b915061227a82612dfa565b604082019050919050565b61228e81612786565b82525050565b60006122a08285612001565b91506122ac8284612001565b91508190509392505050565b60006020820190506122cd6000830184611f71565b92915050565b60006080820190506122e86000830187611f71565b6122f56020830186611f71565b6123026040830185612285565b81810360608301526123148184611f8f565b905095945050505050565b60006020820190506123346000830184611f80565b92915050565b600060208201905081810360008301526123548184611fc8565b905092915050565b6000602082019050818103600083015261237581612032565b9050919050565b6000602082019050818103600083015261239581612055565b9050919050565b600060208201905081810360008301526123b581612078565b9050919050565b600060208201905081810360008301526123d58161209b565b9050919050565b600060208201905081810360008301526123f5816120be565b9050919050565b60006020820190508181036000830152612415816120e1565b9050919050565b6000602082019050818103600083015261243581612104565b9050919050565b6000602082019050818103600083015261245581612127565b9050919050565b600060208201905081810360008301526124758161214a565b9050919050565b600060208201905081810360008301526124958161216d565b9050919050565b600060208201905081810360008301526124b581612190565b9050919050565b600060208201905081810360008301526124d5816121b3565b9050919050565b600060208201905081810360008301526124f5816121d6565b9050919050565b60006020820190508181036000830152612515816121f9565b9050919050565b600060208201905081810360008301526125358161221c565b9050919050565b600060208201905081810360008301526125558161223f565b9050919050565b6000602082019050818103600083015261257581612262565b9050919050565b60006020820190506125916000830184612285565b92915050565b60006125a16125b2565b90506125ad8282612804565b919050565b6000604051905090565b600067ffffffffffffffff8211156125d7576125d661293c565b5b6125e08261296b565b9050602081019050919050565b600067ffffffffffffffff8211156126085761260761293c565b5b6126118261296b565b9050602081019050919050565b600081519050919050565b600081519050919050565b600082825260208201905092915050565b600082825260208201905092915050565b600081905092915050565b600061266c82612786565b915061267783612786565b9250827fffffffffffffffffffffffffffffffffffffffffffffffffffffffffffffffff038211156126ac576126ab6128af565b5b828201905092915050565b60006126c282612786565b91506126cd83612786565b9250826126dd576126dc6128de565b5b828204905092915050565b60006126f382612786565b91506126fe83612786565b925082821015612711576127106128af565b5b828203905092915050565b600061272782612766565b9050919050565b60008115159050919050565b60007fffffffff0000000000000000000000000000000000000000000000000000000082169050919050565b600073ffffffffffffffffffffffffffffffffffffffff82169050919050565b6000819050919050565b82818337600083830152505050565b60005b838110156127bd5780820151818401526020810190506127a2565b838111156127cc576000848401525b50505050565b600060028204905060018216806127ea57607f821691505b602082108114156127fe576127fd61290d565b5b50919050565b61280d8261296b565b810181811067ffffffffffffffff8211171561282c5761282b61293c565b5b80604052505050565b600061284082612786565b91507fffffffffffffffffffffffffffffffffffffffffffffffffffffffffffffffff821415612873576128726128af565b5b600182019050919050565b600061288982612786565b915061289483612786565b9250826128a4576128a36128de565b5b828206905092915050565b7f4e487b7100000000000000000000000000000000000000000000000000000000600052601160045260246000fd5b7f4e487b7100000000000000000000000000000000000000000000000000000000600052601260045260246000fd5b7f4e487b7100000000000000000000000000000000000000000000000000000000600052602260045260246000fd5b7f4e487b7100000000000000000000000000000000000000000000000000000000600052604160045260246000fd5b6000601f19601f8301169050919050565b7f4552433732313a207472616e7366657220746f206e6f6e20455243373231526560008201527f63656976657220696d706c656d656e7465720000000000000000000000000000602082015250565b7f4552433732313a207472616e736665722066726f6d20696e636f72726563742060008201527f6f776e6572000000000000000000000000000000000000000000000000000000602082015250565b7f4552433732313a20746f6b656e20616c7265616479206d696e74656400000000600082015250565b7f4552433732313a207472616e7366657220746f20746865207a65726f2061646460008201527f7265737300000000000000000000000000000000000000000000000000000000602082015250565b7f4552433732313a20617070726f766520746f2063616c6c657200000000000000600082015250565b7f4552433732313a206f70657261746f7220717565727920666f72206e6f6e657860008201527f697374656e7420746f6b656e0000000000000000000000000000000000000000602082015250565b7f4552433732313a20617070726f76652063616c6c6572206973206e6f74206f7760008201527f6e6572206e6f7220617070726f76656420666f7220616c6c0000000000000000602082015250565b7f4552433732313a2062616c616e636520717565727920666f7220746865207a6560008201527f726f206164647265737300000000000000000000000000000000000000000000602082015250565b7f4552433732313a206f776e657220717565727920666f72206e6f6e657869737460008201527f656e7420746f6b656e0000000000000000000000000000000000000000000000602082015250565b7f45524337323155524953746f726167653a2055524920736574206f66206e6f6e60008201527f6578697374656e7420746f6b656e000000000000000000000000000000000000602082015250565b7f4552433732313a206d696e7420746f20746865207a65726f2061646472657373600082015250565b7f45524337323155524953746f726167653a2055524920717565727920666f722060008201527f6e6f6e6578697374656e7420746f6b656e000000000000000000000000000000602082015250565b7f4552433732313a20617070726f76656420717565727920666f72206e6f6e657860008201527f697374656e7420746f6b656e0000000000000000000000000000000000000000602082015250565b7f4552433732314d657461646174613a2055524920717565727920666f72206e6f60008201527f6e6578697374656e7420746f6b656e0000000000000000000000000000000000602082015250565b7f4552433732313a20617070726f76616c20746f2063757272656e74206f776e6560008201527f7200000000000000000000000000000000000000000000000000000000000000602082015250565b7f4552433732313a207472616e736665722063616c6c6572206973206e6f74206f60008201527f776e6572206e6f7220617070726f766564000000000000000000000000000000602082015250565b7f4552433732314275726e61626c653a2063616c6c6572206973206e6f74206f7760008201527f6e6572206e6f7220617070726f76656400000000000000000000000000000000602082015250565b612e528161271c565b8114612e5d57600080fd5b50565b612e698161272e565b8114612e7457600080fd5b50565b612e808161273a565b8114612e8b57600080fd5b50565b612e9781612786565b8114612ea257600080fd5b5056fea264697066735822122023c2439c96f462df1c423c1c27f2c00340787833cb29a364d73fee704ab6e9c464736f6c63430008040033",
  "linkReferences": {},
  "deployedLinkReferences": {}
}